S00D00004C616220342E73726563B4
S11300000C9434000C9451000C9451000C94510045
S11300100C9451000C9451000C9451000C94510018
S11300200C9451000C9451000C9451000C94510008
S11300300C9451000C9451000C9451000C945100F8
S11300400C9451000C9451000C9451000C945100E8
S11300500C9451000C940C010C9451000C9451001C
S11300600C9451000C94510011241FBECFEFD8E022
S1130070DEBFCDBF11E0A0E0B1E0EEE4F2E002C0EB
S113008005900D92A031B107D9F721E0A0E1B1E0CC
S113009001C01D92A231B207E1F70E94AC000C949A
S11300A025010C940000ECE7F0E01082808180646C
S11300B08083808180628083808187608083EAE797
S11300C0F0E0108280818B688083808180648083EB
S11300D008958FEF8AB984B18C7F84B984B18C6020
S11300E084B985B1836085B91092110180911101A1
S11300F08BB9F894E1E6F0E080E8808384E08083C3
S11301001092C1000E945300789487B1816087B92E
S113011088B18E7F88B9089523B130E0082E02C0DB
S1130120359527950A94E2F720FD12C0E3EDF0E33C
S11301303197F1F700C0000023B130E0A90102C0FB
S1130140559547958A95E2F740FD04C081E00895EE
S113015080E0089580E008950E94690080E00E9494
S11301608C00882339F0809111018F5F80931101F5
S1130170189BFECF81E00E948C00882339F0809187
S11301801101815080931101199BFECF90911001B0
S113019080911101891720F488B1816088B903C066
S11301A088B18E7F88B985B18B7F85B985B1877F0A
S11301B085B9809111018BB981EE94E00197F1F733
S11301C000C0000085B18B7F85B9E0911001EF700C
S11301D0F0E0E050FF4F80818BB985B1886085B92C
S11301E081EE94E00197F1F700C0000085B1877FAC
S11301F085B9E0911001E295EF70F0E0E050FF4F17
S113020080818BB985B1846085B981EE94E00197D2
S1130210F1F700C00000A2CF1F920F920FB60F9209
S113022011248F93EF93FF938091790080931001B1
S1130230EAE7F0E0808180648083FF91EF918F9101
S11102400F900FBE0F901F901895F894FFCFEB
S113024E3F065B4F666D7D077F6F777C395E7971F4
S9030000FC
