:100000000C9434000C9446000C9446000C94970019
:100010000C9446000C9446000C9446000C94460048
:100020000C9446000C9446000C9446000C94460038
:100030000C9446000C9446000C9446000C94460028
:100040000C9446000C9446000C9446000C94460018
:100050000C9446000C9446000C9446000C94460008
:100060000C9446000C94460011241FBECFEFD8E03C
:10007000DEBFCDBF21E0A0E0B1E001C01D92A13004
:10008000B207E1F70E9476000C94A1000C940000E6
:100090008FEF8AB984B18C7F84B985B1836085B9CB
:1000A00010920001809100018BB9089523B130E0D6
:1000B000082E02C0359527950A94E2F720FD12C05C
:1000C000E3EDF0E33197F1F700C0000023B130E039
:1000D000A90102C0559547958A95E2F740FD04C0F5
:1000E00081E0089580E0089580E008950E9448002E
:1000F00080E00E945600882351F0809100018F5FBC
:1001000080930001809100018BB9189BFECF81E0A4
:100110000E945600882361F38091000181508093F2
:100120000001809100018BB9199BFECFE1CF1F9296
:100130000F920FB60F9211240F900FBE0F901F90C9
:060140001895F894FFCFB2
:00000001FF
