:020000020000FC
:0200000020C01E
:0200100072C0BC
:1000400034C0F8940FEF0DBF08E00EBF00E8009336
:10005000610004E0009361000FE004B900E005B91D
:1000600000E307B903E008B90FEF0AB900E00BB9E4
:1000700002E00093680003E000936C0040E050E071
:1000800060E070E000E000930001449845980E9411
:1000900097007894A89BFECF01E005BB70FF1BD0B2
:1000A00070FD21D001E07027F5CF0F930FB70F93AC
:1000B00004E606BD5395543651F450E043954A305A
:1000C00031F440E06395663011F440E060E00F9158
:1000D0000FBF0F911895EEE3F1E0E40F24912BB9D7
:1000E000449A45980895EEE3F1E0E60F34913BB968
:1000F000459A449808950F930FB70F9306B100FFE8
:1001000006D001FF0CD00F910FBF0F9118951091E1
:10011000000113951F701093000115B908951091F7
:1001200000011A951F701093000115B9089503E09E
:1001300005BD04E606BD01E000936E0008953F068C
:080140005B4F666D7D477F6F88
:00000001FF
