S011000050726F796563746F322E737265638C
S11300000C9434000C9451000C9451000C94510045
S11300100C9451000C9451000C9451000C94510018
S11300200C9451000C9451000C9451000C94510008
S11300300C9451000C9451000C9451000C945100F8
S11300400C9451000C9451000C94BD020C9451007A
S11300500C9451000C9451000C9451000C945100D8
S11300600C9451000C94510011241FBECFEFD8E022
S1130070DEBFCDBF13E0A0E0B1E0E4EFF7E002C0E3
S113008005900D92AA37B107D9F723E0AAE7B3E0A8
S113009001C01D92AF37B207E1F70E946A010C94C8
S11300A0F8030C940000F999FECF72BD61BD80BDC8
S11300B08FB384608FBB8FB382608FBB0895F9992F
S11300C0FECF92BD81BD8FB381608FBB80B590E0C0
S11300D0089580E480937C0083E880937A000895F7
S11300E0ECE7F0E09081907F8F70892B808385E32B
S11300F08A95F1F70000EAE7F0E08081806480836C
S113010080917A0086FDFCCF8091780090917900EF
S1130110089584B18E7F84B985B1816085B98AB12F
S11301208F708AB98BB1806F8BB908958AB184605E
S11301308AB984B1806184B9089518991DC08091E9
S11301407B0381111BC02FEF89EF90E02150804089
S11301509040E1F700C00000189910C080917D0321
S113016090E0019663E070E00E949F0380937D031A
S113017081E080937B03089510927B03089580E0CF
S113018091E00E948C0381E191E00E948C038FE353
S113019091E00E948C0389E691E00E948C0388E739
S11301A091E00E948C030895EF92FF920F931F93A6
S11301B0CF937B01082F10E0000F111F000F111FB8
S11301C0C0E011C06C2F70E0F701E60FF71F600F5D
S11301D0711F80810E9453008FE39CE90197F1F71E
S11301E000C00000CF5FC43068F385EA91E00E944C
S11301F08C03CF911F910F91FF90EF900895CF92B0
S1130200DF92EF92FF921F93CF93DF9300D000D041
S1130210CDB7DEB7C82ED12CCC0CDD1CCC0CDD1C2C
S113022010E00EC0E12EF12C812F8C0D0E945F0096
S1130230E1E0F0E0EC0FFD1FEE0DFF1D80831F5F7A
S1130240143080F389810E94FA028A810E940E038D
S11302508B810E9423038C810E9450030F900F9086
S11302600F900F90DF91CF911F91FF90EF90DF904F
S1130270CF90089580EC91E00E948C0380EE91E091
S11302800E948C0389EF91E00E948C0384E192E048
S11302900E948C0388E292E00E948C038AE392E03D
S11302A00E948C0384E592E00E948C03089599B126
S11302B0892F807194FF0DC04D9B06C04E9B06C0D4
S11302C04F9906C083E0089581E0089582E008957F
S11302D08FEF0895CF93DF9300D000D0CDB7DEB772
S11302E00E946F030E9469000E94EA020E940503B3
S11302F00E9419030E9442030E9489000E949600F2
S113030013E00E949D0080917C038823E9F0809192
S11303107D038230C9F080917E03823339F08333C8
S113032049F0813359F410927D030CC081E080932D
S11303307D0308C082E080937D0304C086E692E0DA
S11303400E948C0310927C0380917D031817F9F0AE
S113035010927A0380917D03813049F018F0823045
S113036059F00FC08BE792E00E948C030CC084E923
S113037092E00E948C0307C08DEA92E00E948C03F5
S113038002C010927D030E94BF0010917D038091F2
S11303907D03813009F479C020F0823009F49AC0D9
S11303A0E9C08BB184608BB985B18F7E85B980E05B
S11303B00E9470003C0181E00E9470005C0182E0B8
S11303C00E9470006C0183E00E9470007C01930124
S11303D0A4EBB0E00E94D5030F2E44244A94F3E02A
S11303E05F2E612C712CF02DA30192010E94B303A6
S11303F0922E9501A4EBB0E00E94D503A3019201D3
S11304000E94B303B22E9601A4EBB0E00E94D50380
S1130410A30192010E94B303D22E9701A4EBB0E092
S11304200E94D503A30192010E94B303F22E892DE9
S11304300E94FA028B2D0E940E038D2D0E9423032D
S11304408F2D0E9450030E945701082F8F3F09F4FB
S113045058CF2FEF80E792E0215080409040E1F7A1
S113046000C000000E94570108134BCF9982BA8242
S1130470DB82FC82BE016F5F7F4F802F0E94D4001D
S11304800E9457010817E1F33CCF85B18F7E85B9EF
S11304908BB18B7F8BB90E945701082F8F3F09F4D2
S11304A030CF2FEF80E792E0215080409040E1F779
S11304B000C000000E945701081323CF802F0E9420
S11304C0FF0084EC92E00E948C030E9457010817FD
S11304D0E1F317CF85B1806185B98BB18B7F8BB97F
S11304E080917A03811105C00E943A0181E08093D2
S11304F07A0380917C03882309F403CF80917E03DF
S1130500823389F018F4813331F02BC0833399F0AE
S11305108433E1F026C087E18093B30081EE92E05A
S11305200E948C0322C089E08093B4008AEF92E099
S11305300E948C031AC08CE390E09093890080930E
S1130540880085E193E00E948C030FC089E190E06C
S113055090938B0080938A0084E393E00E948C0341
S113056004C081E593E00E948C0310927C030E94F6
S11305703A01C7CE10927D03C4CE1F920F920FB6DC
S11305800F9211242F933F934F935F936F937F9315
S11305908F939F93AF93BF93EF93FF938091C60084
S11305A080937E0381E080937C0380917E030E948C
S11305B08503FF91EF91BF91AF919F918F917F91AF
S11305C06F915F914F913F912F910F900FBE0F90BC
S11305D01F90189582E8809380008AE180938100BF
S11305E080E49CE9909387008093860084B18260C4
S11305F084B908952BE0829FC00111248056904F46
S113060090938900809388000895E0E8F0E0808169
S11306108062808384B1846084B908952BE0829FD2
S1130620C00111248053984F90938B0080938A00CB
S1130630089584B1886084B983E88093B00087E02A
S11306408093B100089590E0A0E0B0E0880F991F76
S1130650AA1FBB1F880F991FAA1FBB1FBC01CD0176
S1130660660F771F881F991F660F771F881F991FB2
S113067024EB30E040E050E00E94B303205F20937D
S1130680B30008958AB188608AB9E0EBF0E0808114
S113069083628083E1EBF0E080818760808308954A
S11306A090E0A0E0B0E0880F991FAA1FBB1F880F3D
S11306B0991FAA1FBB1FBC01CD01660F771F881F9E
S11306C0991F660F771F881F991F24EB30E040E0C5
S11306D050E00E94B303205F2093B40008958AB1D0
S11306E082608AB98AB18E7F8AB978941092C000E8
S11306F088E98093C10086E08093C20087E690E099
S11307009093C5008093C40008959091C00095FF14
S1130710FCCF8093C60008950F931F93CF938C0151
S1130720C0E003C00E948503CF5FF801EC0FF11D08
S113073080818111F7CFCF911F910F91089597FB7D
S1130740072E16F4009407D077FD09D00E94E40325
S113075007FC05D03EF4909581959F4F08957095C0
S113076061957F4F0895A1E21A2EAA1BBB1BFD01C0
S11307700DC0AA1FBB1FEE1FFF1FA217B307E4077C
S1130780F50720F0A21BB30BE40BF50B661F771FD4
S1130790881F991F1A9469F76095709580959095B4
S11307A09B01AC01BD01CF010895A29FB001B39F8D
S11307B0C001A39F700D811D1124911DB29F700D66
S11307C0811D1124911D0895AA1BBB1B51E107C073
S11307D0AA1FBB1FA617B70710F0A61BB70B881FCD
S11307E0991F5A95A9F780959095BC01CD0108955C
S10707F0F894FFCFA7
S11307F40D0A2D2D2D204D454EDA202D2D2D0D0ABB
S113080400312E204D6F646F204D616E75616C2034
S113081428636F6E74726F6C20636F6E20706F74D4
S1130824656E6369F36D6574726F73290D0A003222
S11308342E204D6F646F20454550524F4D20286340
S1130844617267617220706F73657320677561727A
S11308546461646173290D0A00332E204D6F646F43
S113086420554152540D0A0053656C656363696FE6
S11308746E6520756E61206F706369F36E20286F56
S11308842075736520626F74F36E2066ED7369637B
S11308946F293A2000506F73652067756172646133
S11308A4646120656E20454550524F4D2E0D0A005B
S11308B40D0A2D2D2D204D454E5520444520434FE2
S11308C44D414E444F53203A29202D2D2D0D0A001D
S11308D4313A476C6F626F206F63756C61722044A8
S11308E44552454348410D0A00323A476C6F626FE2
S11308F4206F63756C617220495A515549455244BD
S1130904410D0A00333A477569F16F20495A51552C
S1130914494552444F0D0A00343A477569F16F2032
S11309244445524543484F0D0A002D2D2D2D2D2DA0
S11309342D2D2D2D2D2D2D2D2D2D2D2D2D2D2D2DDF
S11309442D0D0A00496E677265736520636F6D61CE
S11309546E646F3A20000D0A4F706369F36E206968
S11309646E76E16C6964612E0D0A000D0A4D6F64A4
S11309746F204D616E75616C206163746976616486
S11309846F0D0A000D0A4D6F646F20454550524F98
S11309944D20616374697661646F0D0A000D0A4D1C
S11309A46F646F20554152542061637469766164A5
S11309B46F0D0A00506F736520636172676164612F
S11309C420646573646520454550524F4D2E0D0ACD
S11309D4000D0A476C6F626F206F63756C6172203F
S11309E4444552454348410D0A000D0A476C6F6261
S11309F46F206F63756C617220495A515549455291
S1130A0444410D0A000D0A43657272616E646F20DD
S1130A1470E1727061646F20495A515549455244DA
S1130A244F0D0A000D0A43657272616E646F207083
S1130A34E1727061646F204445524543484F0D0A86
S1130A44000D0A436F6D616E646F206E6F2076E152
S1130A546C69646F2E20496E74656E7465206465D8
S10D0A64206E7565766F2E0D0A00F2
S9030000FC
