:020000020000FC
:020000002DC011
:040010000C943C010F
:1000400093C00F930FB70F9306B10770309923D168
:10005000319976D10F910FBF0F9118950FEF0DBF0A
:1000600008E00EBFF89400E80093610004E00093FC
:1000700061000FE004B900E005B908E307B907E043
:1000800008B90FEF0AB900E00BB902E0009368006D
:1000900004E000936C003327222700E00093000166
:1000A00000930101009302010093030100930401F6
:1000B00000930501009306010093070100930801D6
:1000C0000093090120E010E00E94AC007894A89B06
:1000D000FECF01E005BB303079F03130A9F032308D
:1000E000C9F03330E9F0343019F1353039F13630B8
:1000F00059F1373069F1EBCF439A449845986DD167
:1001000074D17BD182D1E3CF439A449A459865D18B
:100110006CD1DDCF439A449A459A6FD176D1D7CF2F
:10012000449A4398459879D180D187D18ED1CFCF49
:10013000439A449A459871D178D1C9CF439A449A49
:10014000459A7BD182D1C3CF439844984598BFCF7D
:10015000439844984598BBCF03E005BD04E606BD2F
:1001600001E000936E0008950F930FB70F9304E61C
:1001700006BD2395243601F566C020E000910001FC
:100180000395009300010A30B9F45DC000E00093CC
:10019000000100910101039500930101063061F413
:1001A00052C000E000930101009102010395009309
:1001B00002010A3009F447C046C000E00093020182
:1001C000009103010395009303010630E1F500E07F
:1001D00000930301009104010395009304010A3088
:1001E00091F500E00093040100910501039500934F
:1001F0000501023041F500E0009305010091060180
:100200000395009306010A30F1F400E00093060123
:10021000009107010395009307010330A1F400E06A
:1002200000930701009108010395009308010A302B
:1002300051F400E000930801009109010395009337
:100240000901013001F40F910FBF0F91189500E0E3
:100250000093000100930101009302010093030148
:100260000093040100930501009306010093070128
:1002700000930801009309010F930FB70F93F8D073
:10028000329904D00F910FBF0F91189533953830E4
:1002900008F030E008953130D1F0323029F03430B8
:1002A00049F13530D1F108950091020103950A30EA
:1002B00059F400E0109103011395109303011630D7
:1002C00019F410E0109303010093020108950091C6
:1002D000040103950A3059F400E0109105011395CB
:1002E00010930501123019F410E0109305010093EA
:1002F000040108950091060103950A3059F400E0C5
:1003000010910701139510930701133019F410E0B1
:1003100010930701009306010895009108010395C9
:100320000A3059F400E01091090113951093090166
:10033000113019F410E01093090100930801089599
:100340003130C1F0323029F0343029F13530A1F1AB
:100350000895009102010A950F3F49F409E01091B8
:1003600003011A951F3F19F415E010930301009340
:1003700002010895009104010A950F3F49F409E034
:10038000109105011A951F3F19F411E01093050112
:10039000009304010895009106010A950F3F49F466
:1003A00009E0109107011A951F3F19F412E010930C
:1003B0000701009306010895009108010A950F3F77
:1003C00049F409E0109109011A951F3F19F410E052
:1003D000109309010093080108952A982B98009121
:1003E00004013BD02A9A40D008952A982B98009176
:1003F000050133D02B9A38D0089528982998009178
:1004000002012BD0289A30D008952898299800917D
:10041000030123D0299A28D008952A982B98009177
:1004200006011BD02A9A20D008952A982B98009173
:10043000070113D02B9A18D0089528982998009175
:1004400008010BD0289A10D0089528982998009177
:10045000090103D0299A08D00895E8E7F4E0E00FF5
:10046000F11D04910BB9089542E34A95F1F70895FF
:1004700044E64A95F1F708953F065B4F666D7D07A8
:020480007F6F8C
:00000001FF
