:100000000C9434000C943E000C943E000C943E0082
:100010000C943E000C943E000C943E000C943E0068
:100020000C943E000C943E000C943E000C943E0058
:100030000C943E000C943E000C943E000C943E0048
:100040000C943E000C943E000C943E000C943E0038
:100050000C943E000C943E000C943E000C943E0028
:100060000C943E000C943E0011241FBECFEFD8E04C
:10007000DEBFCDBF0E9455000C94BC000C94000064
:1000800087E480937C0083E880937A000895EAE710
:10009000F0E080818064808380917A0086FDFCCFCF
:1000A000809178009091790008950E9440000E940C
:1000B00070000E9447009C01A4EBB0E00E94AD00DC
:1000C0002FEF33E040E050E00E948B00822F0E942F
:1000D000800087EA91E60197F1F700C00000E9CFC0
:1000E00082E8809380008AE18093810080E49CE92B
:1000F000909387008093860084B1826084B90895CC
:100100002BE0829FC00111248053984F9093890067
:10011000809388000895A1E21A2EAA1BBB1BFD0143
:100120000DC0AA1FBB1FEE1FFF1FA217B307E407D6
:10013000F50720F0A21BB30BE40BF50B661F771F2E
:10014000881F991F1A9469F760957095809590950E
:100150009B01AC01BD01CF010895A29FB001B39FE7
:10016000C001A39F700D811D1124911DB29F700DC0
:0C017000811D1124911D0895F894FFCF0B
:00000001FF
