S00D00004C616220352E73726563B3
S11300000C9434000C9446000C9446000C94460066
S11300100C9446000C9446000C9446000C94460044
S11300200C9446000C9446000C9446000C94460034
S11300300C9446000C9446000C94FA000C94460070
S11300400C9446000C9446000C9446000C94460014
S11300500C9446000C9446000C9446000C94460004
S11300600C9446000C94460011241FBECFEFD8E038
S1130070DEBFCDBF21E0A0E0B1E001C01D92A230FF
S1130080B207E1F70E9464000C9451010C94000043
S113009080E480937C0083E880937A000895ECE701
S11300A0F0E09081907F8F70892B8083EAE7F0E005
S11300B080818064808380917A0086FDFCCF80916A
S11300C078009091790008950E9448000E94B5003C
S11300D00E94D0000E94E400E1E8F0E080818061A9
S11300E0808380E49CE9909387008093860080E07D
S11300F00E944F009C01A4EBB0E00E9442010F2E2D
S1130100CC24CA94F3E0DF2EE12CF12CF02DA701CE
S113011096010E942001C22F81E00E944F009C01A1
S1130120A4EBB0E00E944201A70196010E942001C5
S1130130D22E82E00E944F007C01F694E794F6945C
S1130140E7948C2F0E94C5008D2D0E94D900C70111
S113015099270E94F4002FEF81EE94E02150804013
S11301609040E1F700C00000C2CF82E88093800095
S11301708AE18093810080E49CE9909387008093D6
S1130180860084B1826084B908952BE0829FC00107
S113019011248056904F909389008093880008958D
S11301A0E0E8F0E080818062808384B1846084B977
S11301B008952BE0829FC00111248053984F90939F
S11301C08B0080938A0008958AB180648AB982E0A2
S11301D084BD83E085BD89E187BDEEE6F0E08081E2
S11301E08260808378940895853608F084E680934D
S11301F0010108951F920F920FB60F9211248F934D
S11302009F939091000180910101981720F48BB184
S113021080648BB903C08BB18F7B8BB98091000153
S11302208F5F8093000180910001843610F010925A
S113023000019F918F910F900FBE0F901F90189502
S1130240A1E21A2EAA1BBB1BFD010DC0AA1FBB1FD6
S1130250EE1FFF1FA217B307E407F50720F0A21B48
S1130260B30BE40BF50B661F771F881F991F1A94B5
S113027069F760957095809590959B01AC01BD01DF
S1130280CF010895A29FB001B39FC001A39F700D39
S1130290811D1124911DB29F700D811D1124911D8A
S10902A00895F894FFCF5D
S9030000FC
