:020000020000FC
:100000000FEF0DBF08E00EBF00E80093610004E0B1
:10001000009361000E9454000FE004B900E005B9AC
:100020001FEF1AB91FE31BB910E017B92FEF28B95A
:1000300055276627772705B300FFFDCFA89A04E66A
:1000400006BD43954F7045B963956A3019F466272C
:100050000E94460016B130990E94320031990E94E8
:100060003900E9CF0E94590053955F700E943F000C
:1000700008950E9459005A950E943F000895E8E9AA
:10008000F0E0052FE00F14911BB90895541719F4EF
:10009000709575B9442708953F065B4F666D7D07DF
:1000A0007F6F777C395E797103E005BD04E606BD9C
:1000B00008956AEF6A95F1F76AEF6A95F1F7089586
:00000001FF
