S00D00004C414220362E73726563F2
S11300000C9434000C9451000C9451000C94510045
S11300100C9451000C9451000C9451000C94510018
S11300200C9451000C9451000C9451000C94510008
S11300300C9451000C9451000C9451000C945100F8
S11300400C9451000C9451000C94E1000C94510058
S11300500C9451000C9451000C9451000C945100D8
S11300600C9451000C94510011241FBECFEFD8E022
S1130070DEBFCDBF11E0A0E0B1E0EAEFF2E002C0E4
S113008005900D92AC3BB107D9F721E0ACEBB1E0A0
S113009001C01D92AF3BB207E1F70E9475000C94BA
S11300A07B010C940000F89484B18F6184B98AB107
S11300B0806E8AB915B88BB18F718BB90E94140107
S11300C00E94F4007894089580E091E00E94300149
S11300D083E191E00E9430018AE291E00E943001C4
S11300E08BE391E00E94300108950E9453000E9426
S11300F064008091BD018823E1F31092BD018091D9
S1130100BC01811134C08091BE018133D9F480E0F7
S11301100E94FB00C82F8F7185B98BB1982F9F71F6
S11301208C2F807E892B8BB983E591E00E9430016E
S11301308C2F0E94430181E191E00E9430010E94D2
S11301406400D7CF8091BE01823351F486E791E0F9
S11301500E94300181E08093BC011092BD01C9CF9F
S113016083E991E00E9430010E946400C2CF809133
S1130170BC01813009F0BDCF8091BE018F7185B97A
S11301802BB19091BE01907E892F90E09595879533
S11301909595879595958795922F9F71892B8BB906
S11301A086EA91E00E9430018091BE010E942901FB
S11301B081E191E00E9430011092BC010E94640030
S11301C098CF1F920F920FB60F9211248F938091A4
S11301D0C6008093BE0181E08093BD018F910F9092
S11301E00FBE0F901F90189580E480937C0087E8E1
S11301F080937A000895ECE7F0E09081907F8F700F
S1130200892B8083EAE7F0E0808180648083809199
S11302107A0086FDFCCF80917800909179009695C4
S113022087959695879508958AB182608AB98AB12F
S11302308E7F8AB91092C00088E98093C10086E05D
S11302408093C20087E690E09093C5008093C40039
S113025008959091C00095FFFCCF8093C600089547
S11302600F931F93CF938C01C0E003C00E94290118
S1130270CF5FF801EC0FF11D80818111F7CFCF9191
S11302801F910F910895CF93C82F843648F089E2C7
S1130290C89F812D112482958F70805D0E94290151
S11302A0CA30B0F09DECC99F812D112486958695A6
S11302B08695899F912D1124969596959695990FDB
S11302C0292F220F220F920F891B805D0E94290182
S11302D09DECC99F912D1124969596959695990F0D
S11302E0892F880F880F980F8C2F891B805D0E949F
S10D02F02901CF910895F894FFCF7F
S11302FA0A2D2D2D2D2D204D454E55202D2D2D2DDC
S113030A2D0A00312E204C65657220506F74656E7B
S113031A63696F6D6574726F0A00322E20456E76BA
S113032A6961722041736369690A0053656C656384
S113033A63696F6E6520756E61206F7063696F6E95
S113034A3A20000A56616C6F722064656C20706FE3
S113035A74656E6369F36D6574726F2028302D328B
S113036A3535293A20000A496E6772657365207526
S113037A6E20636172616374657220415343494913
S113038A3A20000A4F7063696F6E20696E76616C59
S113039A6964612E0A000A4361726163746572209A
S10F03AA726563696269646F3A200000A8
S9030000FC
